:020000020000FC
:1000000000271124112704E00EBF0FE50DBFF0E01B
:10001000EEEC0C9479008FEF87BB8827089515913B
:100020001030089510E00895FF93EF931154F0E01D
:10003000E6EDE10FF11D1491EF91FF9108950F93FB
:100040001F930E9431000130F9F00E94480042E302
:100050000E944C000E9431001030A9F71F910F91AF
:100060000895110F10F003C0089501E0089500E015
:100070000895C09A24E10E945A00C09824E10E9489
:100080005A004A95B1F7089546E90E943900DFCF3A
:1000900042E30E9439000895C09824E10E945A006A
:1000A000C09824E10E945A004A95B1F708954AEF9A
:1000B000F3DF0895C79A0F931F930AE01FE11A9583
:1000C000F1F70A95D9F7C7981F910F910895534FEB
:1000D0005320534F53006088A8904028D0082078C0
:1000E000B048E0A0F068D85010C030187098B8C878
:1000F00000001F930E940B000E940F000E9414003A
:100100000E941F0042E30E944C000E940F00112336
:1001100029F0103261F20C947E001F910C948E0035
:00000001FF
