:020000020000FC
:100000000C9404000C941F0004E00EBF0FE50DBF1C
:100010000FEF07BB01BB0E9465000E9453000E94C6
:1000200055000E9420000E9463000E94390029F4BC
:1000300004E60E9464000E9455000C94110018957B
:100040000E94230008950091600017E00E94320092
:10005000009360000091610015E00E94320000935F
:100060006100089500601AF0011711F40250039521
:100070000895FF27E0E60E944200FF27E2E60E9483
:100080004200089511910E944C001081E5E6E10FB5
:100090001081102B1083089501E01A951AF0000FBB
:1000A0000C944D000895789408950F920F920E9439
:1000B0005C000E94630008950EB7F02F0DB7E02F8B
:1000C00000916A000895089508950E94760008BB83
:1000D00012BB0C94650005E007B904E806B9369A2E
:1000E00036990C94700004B115B1089505E207B972
:1000F00004E806B9369A36990C947B0005B1089548
:100100003D9A04E806B908951F9317B1187F012B93
:1001100007B9369A36990C948A0005B11F91089553
:00000001FF
