:020000020000FC
:100000000C9404000C941F0004E00EBF0FE50DBF1C
:1000100000240FEF07BB0ABB01BA0E9475000E94C3
:100020007B000E9442000E948B000E945B0029F42A
:1000300004E60E948C000E947B000C9411000F9338
:100040000FB70F93FF93EF931F932F93F0E0E5E625
:1000500008BA209164002395233009F420E02BBBDB
:1000600020936400E20F508158BBF0E0EAE6108173
:10007000139510832F911F91EF91FF910F910FBF57
:100080000F9118950E94450008950091600017E0B7
:100090000E945400009360000091610015E00E94EE
:1000A000540000936100089500601AF0011711F4E4
:1000B000025003950895FF27E0E60E946400FF27A1
:1000C000E2E60E946400089511910E946E00108182
:1000D000E5E6E10F1081102B1083089501E01A95D9
:1000E0001AF0000F0C946F00089502E005BF00E4C1
:1000F0000BBF789408950F920F920E9484000E9483
:100100008B000F900F9008950EB7F02F0DB7E02FD2
:1001100000916A000895089508950E949E0008BB0A
:1001200012BB0C948D0005E007B904E806B9369AB5
:1001300036990C94980004B115B1089505E207B9F9
:1001400004E806B9369A36990C94A30005B10895CF
:100150003D9A04E806B908951F9317B1187F012B43
:1001600007B9369A36990C94B20005B11F910895DB
:00000001FF
