:020000020000FC
:100000000C9404000C94440004E00EBF0FE50DBFF7
:100010000E94FF000E9412010E94B2000E9436015D
:100020000E94E5000E94180006E918D00C940C000C
:100030000F931F930091610010916300011759F411
:100040000091600010916200011729F406E00E94FF
:1000500039000E9412011F910F910895C79A3EE046
:1000600028E02A95F1F70A95D9F7C7983A95C1F78C
:100070000895B6E0959A0E942E00959806E90E9490
:100080002E00BA95B9F70895FF93EF930F931F933E
:100090002F932FB72F93F0E0E4E60081000F000FBD
:1000A000222728BB0BBB069506950395053009F45E
:1000B00000270083F0E0E5E6E00FF21F1081000F5B
:1000C000000F0BBB18BB00916A00039500936A00F8
:1000D0002F912FBF2F911F910F91EF91FF911895A5
:1000E000012F07B93D98369A36990C94740004B1E3
:1000F00015B10895FF93EF930F931F9310E00E94A3
:100100007000103039F40091600003950093600096
:100110000C949100133029F4009160000A9500932B
:1001200060001F910F91EF91FF910895FF93EF935E
:100130000F931F9311E00E947000103039F400916A
:1001400061000A95009361000C94AD00133029F40E
:10015000009161000395009361001F910F91EF9151
:10016000FF9108950E947A000E9496000E94B900B3
:1001700008950091600017E00E94C800009360009D
:100180000091610015E00E94C8000093610008958D
:1001900000601AF0011711F40250039508950091C0
:1001A000620017E00E94DE0000936200009163008D
:1001B00015E00E94DE0000936300089500601AF0CD
:1001C000011711F4025003950895FF27E0E60E94FD
:1001D000EE00FF27E2E60E94EE00089511910E94D2
:1001E000F8001081E5E6E10F1081102B10830895CF
:1001F00001E01A951AF0000F0C94F90008950027F9
:100200000093640000936A0003E005BF00E40BBFA5
:100210000FEF07BB00E201BB0CE10ABB04E806B923
:10022000789408950027F0E0E0E6008302E0F0E033
:10023000E1E600830F930F930E9429010E9436018B
:100240000F91009362000F91009363000E94CF0012
:1002500008950EB7F02F0DB7E02F00916A00102F10
:10026000202F17702570138324830895F0E0E5E6AE
:0C02700015E0002701931A95E9F70895A6
:00000001FF
