:020000020000FC
:100000003F065B4F666D7D077F6F04E00EBF0FE517
:100010000DBF0AE005BF00EC0BBF00EC0ABF0E9459
:100020001A0060E010E00E941F0042E00E942100E0
:100030000C9418008FEF87BB8ABB882708951BBBE1
:100040000895FF93EF935F931124F0E0E0E0E40F55
:10005000F11D549158BB5F91EF91FF910895462F88
:100060000E94210008954F934FB74F931F931FB7DE
:100070001F930E9421001395143008F011270E944D
:100080002F001F911FBF1F914F914FBF4F91189588
:100090006F936FB76F9363950E942F006F916FBF3F
:0400A0006F911895AF
:00000001FF
