:020000020000FC
:0C0000000C942A000C947B000C945D0012
:1000540004E00EBF0FE50DBF0AE005BF00EC0BBFC7
:1000640060E060936000609361006093620060935D
:100074006300609364000E94480010E00E944D00F9
:1000840040E00E944F0078940C9446008FEF87BBA9
:100094008ABB882708951BBB0895FF93EF935F9352
:1000A4001124F1E0E2E4E40FF11D549158BB5F9197
:1000B400EF91FF9108950F930FB70F938F932F93A1
:1000C4001F934F93D0E0C4E6F0E0E0E680E01881AF
:1000D40041910E944D000E944F0088838395843093
:1000E400B1F74F931F932F938F910F910FBF0F91E0
:1000F40018950F930FB70F936F932F93D0E0C0E62B
:10010400688163956A30A1F4662769936881639571
:10011400663071F466276993688163956A3041F4A7
:100124006627699368816395663011F4662769933D
:1001340068832F916F910F910FBF0F9118953F0610
:080144005B4F666D7D077F6FC4
:00000001FF
