:020000020000FC
:0C0000000C942A000C948A000C945F0001
:1000540004E00EBF0FE50DBF60E0609360006093A5
:100064006100609362006093630063E060936400E6
:1000740066270AE005BF00EC0BBF0E944A0010E0AF
:100084000E944F0040E00E94510078940C94480074
:100094008FEF87BB8ABB882708951BBB0895FF9306
:1000A400EF935F931124F1E0E0E6E40FF11D549126
:1000B40058BB5F91EF91FF9108950F930FB70F9382
:1000C4008F932F931F934F93D0E0C4E6F0E0E0E6C4
:1000D40018811395143009F41127E10F30E0F31F50
:1000E40040811BBBFF93EF935F931124F1E0E0E6A3
:1000F400E40FF11D549158BB5F91EF91FF91188368
:100104004F911F912F918F910F910FBF0F911895C0
:100114000F930FB70F936F932F93D0E0C0E66881CE
:1001240063956A30A1F466276993688163956630A4
:1001340071F466276993688163956A3041F4662790
:10014400699368816395663011F4662769936883BF
:100154002F916F910F910FBF0F9118953F065B4F31
:06016400666D7D077F6F50
:00000001FF
